:020000040800F2
:1000000000000220AD370008A5370008A53700081A
:10001000A5370008A5370008A53700080000000034
:10002000000000000000000000000000A5370008EC
:10003000A537000800000000A53700082940000887
:10004000A5370008A5370008A5370008A537000820
:10005000A5370008A5370008A5370008A537000810
:10006000A5370008A5370008A5370008A537000800
:10007000A5370008A5370008A5370008A5370008F0
:10008000A5370008A5370008A5370008A5370008E0
:10009000A5370008A5370008A5370008A5370008D0
:1000A000A5370008A5370008A5370008A5370008C0
:1000B000A5370008A5370008A5370008A5370008B0
:1000C000A5370008A5370008A5370008A5370008A0
:1000D000A5370008A5370008A5370008A537000890
:1000E000A5370008A5370008A5370008A537000880
:1000F000A5370008A5370008A5370008A537000870
:10010000A5370008A5370008A5370008A53700085F
:10011000A5370008A5370008A5370008A53700084F
:10012000A5370008A5370008A5370008A53700083F
:10013000A5370008A5370008A5370008A53700082F
:10014000A5370008A5370008A5370008A53700081F
:10015000A5370008A5370008A5370008A53700080F
:10016000A5370008A5370008A5370008A5370008FF
:10017000A5370008A5370008A5370008A5370008EF
:10018000A5370008A5370008A5370008A5370008DF
:10019000A537000800000000A5370008A5370008B3
:1001A000A5370008A5370008A5370008A5370008BF
:1001B000A5370008A5370008A5370008A5370008AF
:1001C000A5370008A5370008A5370008A53700089F
:0801D000A5370008A53700085F
:1001E00001F0FF01102A2BDB10F0070F08D010F8E8
:1001F000013B013A8B422DD010F0070F42B3F6D1EC
:10020000F0B441EA012141EA014122F007047FF004
:1002100000070023F0E80256083C85EA010586EA5B
:10022000010685FA47F5A3FA87F586FA47F6A5FA97
:1002300087F68EB9EED1F0BC01F0FF0102F00702A3
:1002400032B110F8013B013A83EA010313B1F8D14E
:100250000020704701387047002D06BF354603382F
:10026000073815F0010F07D1013015F4807F02BF68
:10027000013015F4C03F0130F0BC0138704700BFB9
:10028000034613F8012B002AFBD1181A01387047D6
:1002900081F0004102E000BF83F0004330B54FEA37
:1002A00041044FEA430594EA050F08BF90EA020FA4
:1002B0001FBF54EA000C55EA020C7FEA645C7FEA37
:1002C000655C00F0E2804FEA5454D4EB5555B8BF5A
:1002D0006D420CDD2C4480EA020281EA030382EACB
:1002E000000083EA010180EA020281EA0303362D5D
:1002F00088BF30BD11F0004F4FEA01314FF4801C30
:100300004CEA113102D0404261EB410113F0004F41
:100310004FEA03334CEA133302D0524263EB4303F8
:1003200094EA050F00F0A780A4F10104D5F1200E96
:100330000DDB02FA0EFC22FA05F2801841F10001F1
:1003400003FA0EF2801843FA05F359410EE0A5F1C5
:1003500020050EF1200E012A03FA0EFC28BF4CF0F6
:10036000020C43FA05F3C01851EBE37101F00045AC
:1003700007D54FF0000EDCF1000C7EEB00006EEBB9
:100380000101B1F5801F1BD3B1F5001F0CD3490843
:100390005FEA30004FEA3C0C04F101044FEA44529A
:1003A00012F5800F80F09A80BCF1004F08BF5FEA21
:1003B000500C50F1000041EB045141EA050130BD01
:1003C0005FEA4C0C404141EB0101013C28BFB1F513
:1003D000801FE9D291F0000F04BF01460020B1FA5E
:1003E00081F308BF2033A3F10B03B3F120020CDA31
:1003F0000C3208DD02F1140CC2F10C0201FA0CF00F
:1004000021FA02F10CE002F11402D8BFC2F1200C73
:1004100001FA02F120FA0CFCDCBF41EA0C01904029
:10042000E41AA2BF01EB0451294330BD6FEA040472
:100430001F3C1CDA0C340EDC04F11404C4F120025D
:1004400020FA04F001FA02F340EA030021FA04F36F
:1004500045EA030130BDC4F10C04C4F1200220FAC6
:1004600002F001FA04F340EA0300294630BD21FA04
:1004700004F0294630BD94F0000F83F4801306BFCA
:1004800081F480110134013D4EE77FEA645C18BFBE
:100490007FEA655C29D094EA050F08BF90EA020F55
:1004A00005D054EA000C04BF1946104630BD91EA4D
:1004B000030F1EBF0021002030BD5FEA545C05D150
:1004C0004000494128BF41F0004130BD14F580048F
:1004D0003CBF01F5801130BD01F0004545F0FE4103
:1004E00041F470014FF0000030BD7FEA645C1ABF38
:1004F000194610467FEA655C1CBF0B46024650EA6F
:10050000013406BF52EA033591EA030F41F400219A
:1005100030BD00BF90F0000F04BF0021704730B520
:100520004FF4806404F132044FF000054FF00001F5
:1005300050E700BF90F0000F04BF0021704730B5B6
:100540004FF4806404F1320410F0004548BF40428B
:100550004FF000013EE700BF42004FEAE2014FEAE0
:1005600031014FEA02701FBF12F07F4393F07F4FBB
:1005700081F06051704732F07F4208BF704793F0BE
:100580007F4F04BF41F40021704730B54FF46074D1
:1005900001F0004521F000411CE700BF50EA0102D4
:1005A00008BF704730B54FF000050AE050EA01027D
:1005B00008BF704730B511F0004502D5404261EBED
:1005C00041014FF4806404F132045FEA915C3FF42E
:1005D000D8AE4FF003025FEADC0C18BF03325FEACB
:1005E000DC0C18BF033202EBDC02C2F1200300FA7C
:1005F00003FC20FA02F001FA03FE40EA0E0021FAA1
:1006000002F11444BDE600BF70B54FF0FF0C4CF48E
:10061000E06C1CEA11541DBF1CEA135594EA0C0F40
:1006200095EA0C0F00F0DEF82C4481EA030621EA7B
:100630004C5123EA4C5350EA013518BF52EA0335B6
:1006400041F4801143F4801338D0A0FB02CE4FF068
:100650000005E1FB02E506F00042E0FB03E54FF098
:100660000006E1FB03569CF0000F18BF4EF0010E90
:10067000A4F1FF04B6F5007F64F5407404D25FEA8C
:100680004E0E6D4146EB060642EAC62141EA55513F
:100690004FEAC52040EA5E504FEACE2EB4F1FD0C81
:1006A00088BFBCF5E06F1ED8BEF1004F08BF5FEAFF
:1006B000500E50F1000041EB045170BD06F00046B1
:1006C00046EA010140EA020081EA0301B4EB5C045E
:1006D000C2BFD4EB0C0541EA045170BD41F4801156
:1006E0004FF0000E013C00F3AB8014F1360FDEBF7B
:1006F000002001F0004170BDC4F10004203C35DA57
:100700000C341BDC04F11404C4F1200500FA05F3D9
:1007100020FA04F001FA05F240EA020001F000427A
:1007200021F0004110EBD37021FA04F642EB0601F0
:100730005EEA430E08BF20EAD37070BDC4F10C041A
:10074000C4F1200500FA04F320FA05F001FA04F2DE
:1007500040EA020001F0004110EBD37041F10001CA
:100760005EEA430E08BF20EAD37070BDC4F12005D5
:1007700000FA05F24EEA020E20FA04F301FA05F23D
:1007800043EA020321FA04F001F0004121FA04F2E5
:1007900020EA020000EBD3705EEA430E08BF20EAB5
:1007A000D37070BD94F0000F0FD101F000464000EF
:1007B00041EB010111F4801F08BF013CF7D041EA71
:1007C000060195F0000F18BF704703F00046520075
:1007D00043EB030313F4801F08BF013DF7D043EA46
:1007E0000603704794EA0C0F0CEA135518BF95EAFC
:1007F0000C0F0CD050EA410618BF52EA4306D1D183
:1008000081EA030101F000414FF0000070BD50EAA1
:10081000410606BF1046194652EA430619D094EA2B
:100820000C0F02D150EA013613D195EA0C0F05D115
:1008300052EA03361CBF104619460AD181EA030169
:1008400001F0004141F0FE4141F470014FF0000021
:1008500070BD41F0FE4141F4780170BD70B54FF0BC
:10086000FF0C4CF4E06C1CEA11541DBF1CEA13553C
:1008700094EA0C0F95EA0C0F00F0A7F8A4EB05041E
:1008800081EA030E52EA03354FEA013100F0888015
:100890004FEA03334FF0805545EA131343EA1263DE
:1008A0004FEA022245EA111545EA10654FEA002693
:1008B0000EF000419D4208BF964244F1FD0404F54C
:1008C000407402D25B084FEA3202B61A65EB0305A8
:1008D0005B084FEA32024FF480104FF4002CB6EB65
:1008E000020E75EB030E22BFB61A754640EA0C00E5
:1008F0005B084FEA3202B6EB020E75EB030E22BF25
:10090000B61A754640EA5C005B084FEA3202B6EB65
:10091000020E75EB030E22BFB61A754640EA9C0024
:100920005B084FEA3202B6EB020E75EB030E22BFF4
:10093000B61A754640EADC0055EA060E18D04FEAB2
:10094000051545EA16754FEA06164FEAC30343EA52
:1009500052734FEAC2025FEA1C1CC0D111F4801F1F
:100960000BD141EA00014FF000004FF0004CB6E718
:1009700011F4801F04BF01430020B4F1FD0C88BFB7
:10098000BCF5E06F3FF6AFAEB5EB030C04BFB6EBC2
:10099000020C5FEA500C50F1000041EB045170BDB5
:1009A0000EF0004E4EEA113114EB5C04C2BFD4EBE2
:1009B0000C0541EA045170BD41F480114FF0000E66
:1009C000013C90E645EA060E8DE60CEA135594EAE2
:1009D0000C0F08BF95EA0C0F3FF43BAF94EA0C0FE5
:1009E0000AD150EA01347FF434AF95EA0C0F7FF45A
:1009F00025AF104619462CE795EA0C0F06D152EAAE
:100A000003353FF4FDAE1046194622E750EA410691
:100A100018BF52EA43067FF4C5AE50EA41047FF4A2
:100A20000DAF52EA43057FF4EBAE12E74FF0FF3C07
:100A300006E000BF4FF0010C02E000BF4FF0010CD8
:100A40004DF804CD4FEA410C7FEA6C5C4FEA430C51
:100A500018BF7FEA6C5C1BD001B050EA410C0CBFA0
:100A600052EA430C91EA030F02BF90EA020F002002
:100A7000704710F1000F91EA030F58BF994208BF69
:100A800090422CBFD8176FEAE37040F00100704726
:100A90004FEA410C7FEA6C5C02D150EA013C07D17D
:100AA0004FEA430C7FEA6C5CD6D152EA033CD3D0C8
:100AB0005DF8040B704700BF8446104662468C46C2
:100AC0001946634600E000BF01B5FFF7B7FF0028F5
:100AD00048BF10F1000F01BD4DF808EDFFF7F4FF1E
:100AE0000CBF012000205DF808FB00BF4DF808EDA9
:100AF000FFF7EAFF34BF012000205DF808FB00BFCC
:100B00004DF808EDFFF7E0FF94BF012000205DF8ED
:100B100008FB00BF4DF808EDFFF7CEFF94BF0120A2
:100B200000205DF808FB00BF4DF808EDFFF7C4FF9B
:100B300034BF012000205DF808FB00BF4FEA410CE4
:100B40007FEA6C5C02D150EA013C0AD14FEA430CC7
:100B50007FEA6C5C02D152EA033C02D14FF0000004
:100B600070474FF0010070474FEA410212F5001242
:100B700015D211D56FF47873B3EB625212D94FEAE4
:100B8000C12343F0004343EA505311F0004F23FACE
:100B900002F018BF404270474FF00000704750EA23
:100BA000013005D111F0004008BF6FF000407047E0
:100BB0004FF00000704700BF2DE9FF4757EC106B66
:100BC000002F0C4619463B46BBBF07F100431F46AA
:100BD00000232D230B700D9BDDF830A0914623F0F0
:100BE0002008BCBF32461646B8F1460F05D0B8F112
:100BF000450F00D10134022100E0032103AB019332
:100C000002AB009347EC106B5346224600F0B8FC51
:100C1000B8F1470F054619D119F0010F0ED000EBBE
:100C200004090022002330463946FFF755FF08B17A
:100C3000CDF80C903022039B4B451ED3039B0E9A9C
:100C40005B1B2846136004B0BDE8F087B8F1460F7F
:100C500000EB0409E5D10378302B0AD100220023F0
:100C600030463946FFF738FF18B9C4F10104CAF815
:100C70000040DAF800309944D3E7591C03911A7008
:100C8000D9E7F7B50029BABF49422D232B230929FB
:100C90000270437029DD0DF1070425460A2722461C
:100CA000B1FBF7F607FB1613303302F8013C0B4695
:100CB000632B04F1FF343146F1DC3031931E04F82C
:100CC000011C411C1C46AB420AD30DF109039B1ABF
:100CD000A54238BF0023821C1344181A03B0F0BD8C
:100CE00013F8016B01F8016FEDE7302330318370A9
:100CF000C170031DF1E700002DE9F04F8DB00C46E7
:100D0000DDF8588016461F46054600F0ABFB036829
:100D100006931846FFF7B4FA00230A93D8F8003078
:100D200094F818A0D4F800B00790073323F0070315
:100D3000B3EC027B8DED047BC8F80030DDE9048361
:100D400023F0004984ED127B9C4B4FF0FF3240466C
:100D50004946FFF7F3FE70BB984B4FF0FF32404619
:100D60004946FFF7CDFE30BBDDE904010022002338
:100D7000FFF7BCFE10B12D2384F84330904A914B0D
:100D8000BAF1470F8CBF90469846032323612BF09E
:100D9000040323604FF00009009733460BAA214655
:100DA000284600F0D1F9013040F08C804FF0FF3040
:100DB0000DB0BDE8F08FDDE9042310461946FFF7BA
:100DC000BDFE40B1059B804A002BBCBF2D2384F89B
:100DD00043307E4BD4E763685A1C0AF0DF093BD1ED
:100DE000062363604BF480620023226003930AAB06
:100DF000CDE901A309AB009361689DED040B0DF1F2
:100E000023032846FFF7D8FEB9F1470F099980461A
:100E100029D1C81C02DB63688B4241DAAAF1020ABD
:100E20005FFA8AFA0139524604F150000991FFF73E
:100E300028FF0A9A1318012A8146236102DC2268DE
:100E4000D20701D5013323619DF82330002BA3D0B5
:100E50002D2384F843309FE7B9F1470FC2D1002B0F
:100E6000C0D10123BDE7BAF1650FDBD9BAF1660F36
:100E700018D1002963680BDD216113B92268D007FE
:100E800002D501330B442361A1654FF00009DBE774
:100E900013B92268D20701D50233F4E70123F2E740
:100EA0004FF0670A0A9B8B4205DC23682161D80753
:100EB000EAD54B1CE7E70029D4BFC1F102020122A9
:100EC0001344E0E723685A0507D4236942463146B4
:100ED0002846B84701302BD168E7BAF1650F40F2D8
:100EE000DD80D4E9120100220023FFF7F5FD002880
:100EF00033D0374A012331462846B84701303FF402
:100F000055AFDDE90938434502DB2368D8070FD523
:100F1000DDE9062331462846B84701303FF446AFA5
:100F20004FF0000908F1FF3804F11A0AC84509DC3E
:100F300023689B0700F10381E0680B9B9842B8BFD0
:100F4000184635E70123524631462846B847013056
:100F50003FF42CAF09F10109E8E7099B002B39DCCC
:100F60001B4A012331462846B84701303FF41EAFE3
:100F7000DDE9093959EA030302D12368D907D7D536
:100F8000DDE9062331462846B84701303FF40EAF6D
:100F90004FF0000A04F11A0B099B5B42534501DC38
:100FA0004B4693E701235A4631462846B84701305D
:100FB0003FF4FCAE0AF1010AEEE700BFFFFFEF7F4E
:100FC000A9400008A5400008B1400008AD40000855
:100FD000B5400008A36DDDF828A05345A8BF5346CF
:100FE000002B994636DC4FF0000B29EAE97904F131
:100FF0001A02A36D0493A3EB09035B4531DC099B43
:101000009A453ADC2368DA0737D4099BAAEB03092F
:10101000049BAAEB03039945A8BF9946B9F1000FB9
:1010200033DC4FF0000829EAE97904F11A0B099B37
:10103000AAEB0303A3EB090343457FF779AF012331
:101040005A4631462846B84701303FF4AFAE08F162
:101050000108ECE7424631462846B8470130C2D184
:10106000A4E60123314628460492B84701303FF4F4
:101070009DAE049A0BF1010BBBE7DDE90623314677
:101080002846B8470130C0D190E6049A4B46424406
:1010900031462846B8470130C3D187E6DDF828A09D
:1010A000BAF1010F01DCDB0736D501234246314698
:1010B0002846B84701303FF479AEDDE906233146D2
:1010C0002846B84701303FF471AED4E9120100223E
:1010D00000230AF1FF3AFFF7FFFCC0B9534608F1BD
:1010E000010231462846B84701300CD15EE60123A3
:1010F0005A4631462846B84701303FF457AE08F10A
:101100000108D045F3DB4B4604F15002DFE64FF017
:10111000000804F11A0BF4E701234246E1E701233A
:101120004A4631462846B84701303FF43FAE08F101
:101130000108E3680B995B1A4345F0DCFCE64FF0CD
:10114000000804F11909F4E72DE9F047164698461E
:101150008A680B69DDF820909342B8BF134633606C
:1011600091F8432007460C460AB1013333602368E7
:10117000990642BF336802333360256815F00605CF
:1011800006D104F1190AE36832689B1AAB4226DCE7
:1011900094F843302268003B18BF012392062BD4F9
:1011A00004F1430241463846C84701301ED0236847
:1011B000226903F00603042B02BFE5683368ED1AC9
:1011C000A3680CBF25EAE57500259342C4BF9B1AAE
:1011D000ED1800261A34B5421AD1002008E0012388
:1011E000524641463846C847013003D14FF0FF30E0
:1011F000BDE8F0870135C6E7E1185A1C302081F8B8
:101200004300224494F8451082F843100233C7E7A4
:101210000123224641463846C8470130E6D0013610
:10122000D9E700002DE9FF470F7E0C9E782F9146ED
:1012300080460C469A4601F1430207D8622F0AD82D
:10124000002F00F0D280582F00F0B78004F1420642
:1012500084F842703AE0A7F16303152BF6D801A198
:1012600051F823F0BD120008D11200084D120008F9
:101270004D1200084D1200084D120008D11200084E
:101280004D1200084D1200084D1200084D120008C2
:10129000D1130008FB120008871300084D12000844
:1012A0004D120008F31300084D120008FB1200084D
:1012B0004D1200084D1200088F13000833681A1DE4
:1012C0001B68326004F1420684F8423001239DE03D
:1012D00033682068191D3160060601D51D6803E0DA
:1012E0004506FBD5B3F90050002D03DA2D236D42DE
:1012F00084F8433059480A2310E02168336808060F
:1013000053F8045B02D4490648BFADB26F2F53486F
:10131000336059D10823002184F843106668A66021
:10132000002E05DB21682E4321F0040121604DD001
:101330001646B5FBF3F103FB1157C75D06F8017DB7
:101340002F46BB420D46F4D9082B0BD12368DF078B
:1013500008D5236961689942DEBF302306F8013C55
:1013600006F1FF36921B2261CDF800A04B4603AA7E
:1013700021464046FFF7E8FE01304CD14FF0FF30E8
:1013800004B0BDE8F087236843F0200323603448AD
:10139000782784F84570236831681F0651F8045B8C
:1013A00002D45F0648BFADB23160D90744BF43F0F5
:1013B000200323601DB11023ADE72848E9E7236827
:1013C00023F020032360F6E70A23A4E71646BBE7D1
:1013D000336825686169181D30602E061B6801D5C9
:1013E000196002E06806FBD51980002323611646C8
:1013F000BAE733681A1D32601E6862680021304601
:10140000FEF7EEFE08B1801B606063682361002375
:1014100084F84330A8E72369324649464046D0471E
:101420000130ABD023689B0713D4E068039B98423C
:10143000B8BF1846A4E70123324649464046D04784
:1014400001309BD00135E36803995B1AAB42F2DCB3
:10145000EBE7002504F11906F5E700BFB7400008E7
:10146000C840000800487047F00000202DE9F74F01
:1014700003690C69A34207467EDB013C01F11408B5
:10148000A30000F11405009305EB8403019358F8C1
:10149000243055F8242001339A4208EB8409B2FB2A
:1014A000F3F62ED34FF0000AC446AE46D3465CF89E
:1014B000043B98B206FB00A0020C1B0C06FB0323A6
:1014C000DEF8002080B292B2121A5A44DEF8000010
:1014D0004FEA134A9BB2C3EB224303EB104392B291
:1014E00042EA0342E1454EF8042B4FEA234BDED299
:1014F000009BEB582BB9019B043B9D421A462FD30E
:101500003C61384601F04EF9002825DB29460020D1
:1015100058F8042BD1F800C01FFA82FE1FFA8CF392
:10152000A3EB0E030344120CC2EB234202EB1C425A
:101530009BB243EA0243C14541F8043B4FEA2240D3
:10154000E6D255F8242005EB840322B9043B9D42E2
:101550001A460BD33C610136304603B0BDE8F08F2C
:101560001268043B002ACBD1013CC6E71268043B59
:10157000002AEFD1013CEAE70020EEE7000000007E
:101580002DE9F04F99B08DED0E0B0C92C269229CA3
:101590000A9157EC106B8146139382B9102000F02A
:1015A000CFFD0246C9F81C0020B9AD4BEF21AD4874
:1015B00001F026FA0023C0E901330360C36011681B
:1015C00059B152684A60012393408B60484600F04D
:1015D000ABFED9F81C3000221A60B7F10008B5BF85
:1015E00001230023236023609F4BBCBF28F00048E9
:1015F000CDF83C8033EA08031AD1139AC8F31308D4
:1016000042F20F7358EA0608136000F06C85239BC2
:1016100053B9964B21E0964B00930833239A1360FD
:10162000009819B0BDE8F08F904B00930333F5E7B5
:101630009DED0E7B002251EC170B00238DED067BF8
:10164000FFF74AFA824650B1139A01231360239B95
:1016500013B1239A874B1360874B0093E0E79DED0E
:10166000060B16AA17A9484601F050F95FEA18546C
:10167000169D019079D0079BCDF850A0C3F31303BA
:10168000DDE9060143F07F5343F44013A4F2FF3435
:1016900019460022794BFEF7FFFD6BA3D3E9002327
:1016A000FEF7B2FF6AA3D3E90023FEF7F7FD064673
:1016B00020460F46FEF73EFF67A3D3E90023FEF75F
:1016C000A3FF02460B4630463946FEF7E7FD0646C5
:1016D0000F46FFF749FA002280460023304639467C
:1016E000FFF704FA48B14046FEF724FF32463B4676
:1016F000FFF7F2F908B908F1FF38B8F1160F51D821
:101700005F4B03EBC803D3E90023DDE90601FFF7D4
:10171000EDF9002848D008F1FF38002312932D1B63
:101720006B1E089343BF0023C5F1010708930027F0
:10173000B8F1000F3ADB089BCDF83480434408939E
:10174000002309930A9B092B64D8052BC4BF043BD3
:101750000A930A9BA3F10203CCBF00240124032BAC
:1017600064D8DFE803F05355362B179C2C4404F261
:101770003243202BC1BFC3F1400308FA03F804F23F
:10178000124326FA03F3D6BFC3F1200348EA03004D
:1017900006FA03F0FEF7BEFE0122A1F1F873013C48
:1017A000149275E70123B9E71290B8E7C8F1000376
:1017B00009930023A7EB08070D93C3E701230B93BD
:1017C0000C9B434405930133012B0493B8BF0123C1
:1017D00006E001230B930C9B002B2ADDCDE904339B
:1017E000D9F81C000021042202F114059D4201F1E8
:1017F000010623D94160484600F058FD00900028BA
:1018000042D1204B024640F2AF11D0E60023E1E77F
:101810000023D4E701240023CDE90A344FF0FF333D
:10182000CDE90433002212230C92D9E701230B9354
:10183000F4E70123CDE904331A46F5E752003146B7
:10184000D2E700BFAFF3008061436F63A787D23F49
:10185000B3C8608B288AC63FFB799F501344D33F9F
:10186000E6400008FD4000080000F07FE24000086C
:10187000D9400008B6400008B54000080000F83F15
:101880005042000858410008D9F81C30009A1A60EC
:10189000049B0E2B00F2A180002C00F09E80B8F17A
:1018A000000F36DD9E4B08F00F0203EBC20318F465
:1018B000807FD3E900AB4FEA281516D0994BDDE9BC
:1018C0000601D3E90823FEF7C9FFCDE9020105F0BF
:1018D0000F050324934E75B9DDE9020152465B46BC
:1018E000FEF7BCFF82468B462DE09DED067B022471
:1018F0008DED027BEEE7E90708D550465946D6E95B
:101900000023FEF781FE013482468B466D100836B7
:10191000E1E700F0AD80C8F10005814B814E05F094
:101920000F0203EBC203D3E90023DDE90601FEF752
:101930006BFE2D1182468B4600230224002D40F0C1
:101940008C80002BCED1129B002B00F09580764B23
:10195000002250465946FFF7C9F8002800F08C8055
:10196000049B002B00F08880059B002B35DD08F1DF
:10197000FF330293504659466C4B0022FEF744FE5B
:10198000059E82468B4601342046FEF7D3FD524623
:101990005B46FEF739FE664B0022FEF77FFC0446ED
:1019A000A1F15075CDE91045002E69D1614B00229F
:1019B00050465946FEF770FC22462B4682468B461F
:1019C000FFF7B2F8002840F09482224605F1004368
:1019D00050465946FFF78AF820BB179B002BC0F2F0
:1019E0006081B8F10E0F00F35C814D4B03EBC8032F
:1019F000D3E900AB0C9B002B80F2EE80049B002B04
:101A000000F3EA800ED14B4B002250465946FEF7B8
:101A1000FBFD02460B46DDE90601FFF771F80028E1
:101A200000F06A8200252C460C9B009EDB4302934B
:101A3000274600242946484600F076FC002F00F097
:101A4000C1802CB1BC4203D02146484600F06CFC5A
:101A50003946484600F068FCB4E0EA0705D5D6E907
:101A60000023FEF7D1FD013401236D10083665E730
:101A7000DDE906AB022466E7049ECDF8088083E723
:101A8000274B03EBC60353E902010B9B002B55D0F8
:101A900002460B4600202849FEF7E0FEDDE9102350
:101AA000FEF7FAFB009BCDE910019D191E46594631
:101AB0005046FFF759F80446FEF73CFD02460B4638
:101AC00050465946FEF7E8FB3034DDE9102306F8AE
:101AD000014B82468B46FFF709F8002872D1524627
:101AE0005B4611490020FEF7D7FBDDE91023FEF726
:101AF000FDFF002840F0B680AE423FF46EAFDDE956
:101B000010010A4B0022FEF77FFD084BCDE91001C2
:101B1000002250465946FEF777FD82468B46C6E7BF
:101B200050420008284200080000F03F0000244016
:101B300000001C40000014400000E03FDDE91023DD
:101B4000FEF762FD009B009DCDE910013344159323
:101B500059465046FFF708F80446FEF7EBFC3034D0
:101B60000B46024659465046FEF796FB05F8014BD8
:101B7000159B9D4282468B4627D1009B0022DDE9C2
:101B800010011E44B34BFEF789FB02460B4650463C
:101B90005946FEF7C9FF002864D1DDE91023AD499D
:101BA0000020FEF779FB02460B4650465946FEF7E9
:101BB0009DFF00283FF411AF334616F8012D302A5F
:101BC000FAD01E46DDF808803AE0A34B0022FEF76B
:101BD0001BFD82468B46BBE7009E52465B46DDE915
:101BE0000601FEF73BFEFEF7BFFF0746FEF7A2FC2D
:101BF00052465B46FEF708FD02460B46DDE906014C
:101C0000FEF74AFB07F1300C009C06F801CBA6EB6F
:101C1000040C049C644502460B4633D1FEF73EFBA0
:101C200052465B4604460D46FEF77EFFC0B952465B
:101C30005B4620462946FEF74FFF08B1FB070FD44D
:101C40000199484600F070FB0023139A337008F1A5
:101C500001031360239B002B3FF4E2AC1E60DFE422
:101C6000CDF8088033461E4613F8012D392A06D1D7
:101C7000009A9A42F7D1029A01320292302201323E
:101C80001A709FE7744B0022FEF7BEFC02460B461B
:101C9000CDE9062300220023FEF71EFF00289CD07A
:101CA000CEE70B9A002A00F0E3800A9A012A00F39B
:101CB000C280149A002A00F0BA8003F23343099DCF
:101CC0003E46089A01211A4448461F44089200F0F3
:101CD000DFFB044656B1089B002B07DDB342089A90
:101CE000A8BF3346FF1AF61AD31A0893099B0BB301
:101CF0000B9B002B00F0C380002D00F0BD8021461F
:101D00002A46484600F084FC019A014604464846AB
:101D100000F0D4FB01998246484600F005FB099B80
:101D20005B1B099300F0AE80099A5146484600F0CB
:101D30006FFC01900121484600F0AAFB0D9B05466F
:101D4000002B00F0D7811A460146484600F060FC9F
:101D50000A9B012B054600F39D800E9B002B40F053
:101D600094800F9BC3F31303002B40F08E800F9BD6
:101D700023F000431B0D1B05002B00F08980089BFE
:101D80000133013708934FF0010A0D9B002B00F03F
:101D9000B7812B6905EB8303186900F02DFBC0F1B7
:101DA0002000089B184410F01F007ED0C0F12003D3
:101DB000042B72DD089BC0F11C0003440744064459
:101DC0000893002F05DD01993A46484600F07CFC57
:101DD0000190089B002B05DD29461A46484600F075
:101DE00073FC0546129B002B61D00198294600F038
:101DF000D9FC00285BDA08F1FF3302930199002334
:101E00000A22484600F0B2FA0B9B0190002B00F02A
:101E10007981002321460A22484600F0A7FA059B53
:101E2000002B044672DC0A9B022B49DC6EE0169BF9
:101E3000C3F1360343E7049B5D1E099BAB420DDBF8
:101E40005D1B049B002BBFF63BAF049BFE1A0023D7
:101E500037E700BF0000E03F00002440099B0D9AD7
:101E60000995EB1A1A440D92049B3E46002528E77B
:101E7000099D0B9C3E462DE7DDF804A054E7099A26
:101E8000019953E7CDF804A054E74FF0000A7CE72E
:101E90009A467AE74FF0000A7BE792D0089A1C3303
:101EA0001A441F441E4408928BE70346F6E7049B3E
:101EB000CDF80880002B23DC05930A9B022B21DD43
:101EC000059B002B7FF4B0AD29460522484600F063
:101ED0004DFA01460546019800F064FC00287FF7A2
:101EE000A3AD009E312306F8013B029B0133029310
:101EF0009EE535462C46F4E7049DCDF80880F9E7C9
:101F0000049B05930B9B002B00F00081002E05DD48
:101F100021463246484600F0D7FB0446BAF1000F8E
:101F20005AD06168484600F0C1F9064628B9824B8C
:101F3000024640F2EF21FFF73ABB226902329200DB
:101F400004F10C010C3000F04CFD012231464846F2
:101F500000F0BAFB0746009B009A03F1010B059BBA
:101F6000134406930E9B03F0010308930BF1FF3318
:101F7000294601980493FFF779FA2146059000F16C
:101F8000300A019800F00EFC3A4680462946484641
:101F900000F024FCC268064602BB0146019800F02E
:101FA00001FC024631464846099200F0BDF9DDE9E0
:101FB000092342EA0301089B19435E4610D1BAF196
:101FC000390F2BD0B8F1000F02DD059B03F1310A68
:101FD000049B83F800A02DE52746BCE70122E1E73A
:101FE000B8F1000F06DB0A9B48EA0308089B58EA91
:101FF000030820D1002AEBDD01990122484600F0B8
:1020000063FB2946019000F0CDFB002803DCDFD103
:102010001AF0010FDCD0BAF1390FD6D1049A392366
:10202000137033461E46013B16F8012C392A52D054
:1020300001321A70FEE4002A07DDBAF1390FEDD043
:10204000049A0AF101031370F4E4069B0BF801AC47
:102050005B452AD0019900230A22484600F086F900
:10206000BC4201904FF000034FF00A02214648465F
:1020700006D100F07BF9044607460BF1010B75E72A
:1020800000F074F93946044600230A22484600F05D
:102090006DF90746F1E7059B5E1E002B009BD8BF3C
:1020A00000265A1C2746164400240199012248465E
:1020B00000F00AFB2946019000F074FB0028B0DC18
:1020C00002D11AF0010FACD133461E4613F8012D90
:1020D000302AFAD0AEE4009A9A42A3D1029B01338F
:1020E00002933123AFE7239B002B7FF494AA134B79
:1020F000FFF7B3BA0A9B012B7FF72FAEDDF834A0B0
:1021000001204EE6059B002B7FF7D7AE009E01987D
:102110002946FFF7ABF900F1300A009B06F801AB46
:10212000F21A059B9342B6DD019900230A22484624
:1021300000F01CF90190EAE758410008D940000876
:10214000024B0146186800F025B800BF6C01002062
:1021500070B50F4E0C463168054611B900F02EFCE3
:1021600030602146284600F029FC431C03D14FF083
:10217000FF34204670BDC41C24F00304A042F8D0F4
:10218000211A284600F01AFC0130F2D1EFE700BF17
:10219000D40100202DE9F843CD1C25F003050835B6
:1021A0000C2D38BF0C25002D064601DBA94204D9B1
:1021B0000C2333600020BDE8F883DFF8D48000F002
:1021C00069F8D8F800301C4644BB29463046FFF772
:1021D000BFFF431C044658D1D8F800402746002FC3
:1021E00043D1002C4BD023683946304604EB030919
:1021F00000F0E4FB814542D121686D1A2946304642
:10220000FFF7A6FF01303AD023682B442360D8F8AB
:1022100000305A6862BBC8F800700FE02268521B99
:1022200020D40B2A17D96119A342256018BF596021
:10223000636808BFC8F8001062514B60304600F078
:102240002FF804F10B00231D20F00700C21A1CBF59
:102250001B1AA350AFE76268A3420CBFC8F8002066
:102260005A60EBE723466468AEE73C467F68B6E712
:102270001A465B68A342FBD100235360DEE70C23C0
:102280003360304600F00CF894E70560D6E700BFF5
:10229000D8010020014800F0A2BB00BFDC010020F3
:1022A000014800F09DBB00BFDC01002070B5C4698F
:1022B00005460E4684B91020FFF742FF0446E86148
:1022C00028B90246164B17486B2100F099FB0023F2
:1022D000C0E901330360C360E36853B921220421DC
:1022E000284600F0ABFBEB69E060DB680BB900202F
:1022F00070BD53F8260030B1026843F82620002351
:10230000C0E90333F4E7012101FA06F4621D9200EB
:10231000284600F093FB0028E9D0C0E90164EEE70D
:10232000E64000086941000870B5C66905460C46DC
:1023300076B91020FFF704FF0246E86120B9094B87
:1023400009488F2100F05CFBC0E901660660C660A9
:102350003CB1EB696268DB6853F82210216043F8F6
:10236000224070BDE6400008694100082DE9F041B7
:102370000D6907460C461E4601F1140C0020DCF8DE
:10238000003099B202FB01611E0C0B0C02FB0633FC
:1023900089B2013001EB034185424CF8041B4FEA3E
:1023A0001346ECDC0EB3A368AB4219DC6168384617
:1023B0000131FFF77BFF804628B902460C4B0D48E0
:1023C000BA2100F01DFB2269023204F10C019200D7
:1023D0000C3000F006FB21463846FFF7A5FF4446C7
:1023E00004EB850301355E6125612046BDE8F0817F
:1023F0005841000869410008B0F5803F034636BFE8
:10240000030400201020B3F1807F3CBF1B02083082
:10241000B3F1805F3CBF1B010430B3F1804F3CBF80
:102420009B000230002B05DB13F0804F00F1010010
:1024300008BF202070470368024613F007000BD046
:10244000D90721D4980749BF5B089B080120136076
:102450005CBF13600220704799B209B91B0C1020B1
:10246000D9B209B908301B0A190704BF1B09043087
:10247000990704BF9B080230D90703D45B0800F119
:10248000010003D013607047002070472020704780
:1024900010B50C460121FFF709FF024628B9054B8C
:1024A000054840F2451100F0ABFA01234461036195
:1024B00010BD00BF58410008694100082DE9F04FE8
:1024C000D1F81090D2F810A0D14585B088461446B6
:1024D00004DB53460C46CA4690469946A368616899
:1024E0000AEB0906B342B8BF0131FFF7DFFE30B98E
:1024F0000246454B45484FF4B17100F081FA00F1B6
:10250000140505EB86072B460022BB421FD304F1BE
:10251000140C08F114010CEB8A0301EB89020292FE
:102520001A1B153A22F0030215349C4288BF002280
:102530000192029A03918A420CD8002E03DD57F8CB
:10254000043D002B5DD0066105B0BDE8F08F43F877
:10255000042BDAE7B1F800A0BAF1000F24D0E0466E
:10256000A9464FF0000E58F8042BD9F800401FFA86
:1025700082FBA4B20AFB0B444FEA124BD9F80020AD
:1025800074444FEA124E0AFB0BE202EB1442A4B26F
:1025900044EA0244434549F8044B4FEA124EE2D85C
:1025A000019AAA18C2F804E0039AB2F80280043132
:1025B000B8F1000F23D02A68E6469146AA464FF0AC
:1025C000000BBEF8004008FB04B404EB194492B2BF
:1025D00042EA04424AF8042B5EF8042BDAF8009031
:1025E0004FEA124B1FFA89F208FB0B2202EB14424E
:1025F00073454FEA124BE4D8019C2C1962600435F4
:1026000097E7013E99E700BF58410008694100087B
:102610002DE9F843174612F0030280460D4607D015
:10262000264C013A002354F82220FFF79FFE05466E
:10263000BF103FD0D8F81C4094B91020FFF780FDA0
:102640000446C8F81C0030B902461D4B1D4840F234
:10265000B31100F0D5F90023C0E901330360C36072
:10266000A66846B940F271214046FFF711FF0023EA
:10267000A060064603602C464FF0000907F00103F6
:102680007F1053B1294632464046FFF717FF2146D7
:1026900005464046FFF748FE67B1306838B9324614
:1026A00031464046FFF70AFF3060C0F8009006460A
:1026B0002C46E3E72846BDE8F88300BF1C4200082B
:1026C000E6400008694100082DE9F84F0C464968CA
:1026D000236903EB6218A368074615464FEA621A9E
:1026E00008F101094B450BDB3846FFF7DFFD0646D5
:1026F00048B90246294B2A484FF4EF7100F080F99F
:1027000001315B00EEE7002300F1140C00F1100230
:102710001946534535DB22692AEAEA7A0CEB8A0C22
:1027200004F1140315F01F0E614603EB82022CD056
:10273000CEF1200A002518688B4600FA0EF02843D7
:10274000CBF8000053F8045B9A4201F1040125FA2A
:102750000AF5F0D8131B153B23F0030304F1150110
:102760008A4238BF00239C44CCF8045005B9C146C6
:102770003846C6F810902146FFF7D6FD3046BDE832
:10278000F88F42F8041F0133C3E753F8045B0D6070
:102790009A4201F10401F8D8E9E700BF5841000866
:1027A000694100080A6903460069801A30B50ED1F4
:1027B0001433143103EB820401EB820154F8045DFD
:1027C00051F8042D954203D005D24FF0FF3030BDB3
:1027D000A342F3D3FBE70120F9E700002DE9F74F0F
:1027E0008A460646114650461446FFF7DBFF051E93
:1027F00012D129463046FFF759FD024628B9414B10
:1028000040F23721404800F0FBF80123C0E90435CD
:10281000104603B0BDE8F08FBCBF5346A246304619
:10282000DAF80410BABF1C4601250025FFF73EFD6B
:10283000024618B9334B40F24521E3E7DAF810704D
:102840002669C5600AF1140904F1140E00F114059B
:102850000AF1100309EB87080EEB86060193AB46DD
:102860004FF0000C019B5EF8040B53F804AF01938A
:102870001FFA8AF3194683B2CB1A000C6344C0EBEB
:102880001A4000EB23409BB243EA004376454BF8E5
:10289000043B4FEA204CE5D8331B153B153423F09D
:1028A0000303A64238BF0023E8184B441C1D043024
:1028B0002646A5EB0905464506EB050E0ED308F1A5
:1028C0000301091B21F003010133984538BF0021A2
:1028D000014451F8043D9BB1176199E756F8041B78
:1028E000E2464FEA11491CFA81FC514409EB2C499C
:1028F00089B241EA09414FEA294CCEF80010DAE7E3
:10290000013FE6E758410008694100082DE9F74317
:102910000F46012159EC108B1646FFF7C7FC044601
:1029200030B90246234B244840F20F3100F068F8DA
:10293000C9F30A55C9F313030DB143F4801301938E
:10294000B8F1000323D068460093FFF774FD0099A7
:10295000D8B1019AC0F1200302FA03F30B43C2403D
:1029600063610192019BA361002B0CBF0122022233
:102970002261A5B1A5F2334505443D60C0F13500A3
:102980003060204603B0BDE8F0836161EAE701A84A
:10299000FFF751FD019B636120300122E8E704EB62
:1029A0008203A0F2324038601869FFF725FDC0EBC2
:1029B0004210E5E7584100086941000838B5064D66
:1029C0000023044608462B6001F020F8431C02D186
:1029D0002B6803B1236038BDE001002070477047C9
:1029E00070470A44914200F1FF3300D1704710B59F
:1029F00011F8014B03F8014F9142F9D110BD0000CD
:102A00001FB514461A46094B1B680546D8684CB1D9
:102A1000074B0091CDE9013406492B4600F08CF8B4
:102A200000F0A4F8044B1C46F3E700BF6C01002043
:102A3000CF410008DC4100080A42000870B5A1FB44
:102A4000025434B92946FFF7A5FB064628B930469B
:102A500070BD0C2202600026F9E72A46214600F0EC
:102A60007DF8F4E738B50546002941D051F8043C1B
:102A70000C1F002BB8BFE418FFF70CFC1D4A1368AD
:102A800033B9636014602846BDE83840FFF708BCDE
:102A9000A34208D9206821188B4201BF19685B68DE
:102AA00009182160EDE71A465B680BB1A342FAD919
:102AB00011685018A0420BD120680144501883427D
:102AC0001160E0D118685B68536008441060DAE771
:102AD00002D90C232B60D6E7206821188B4204BF53
:102AE00019685B68636004BF091821605460CAE715
:102AF00038BD00BFD801002082B001B901A942B1A0
:102B00004BB113780B601278101E18BF012002B071
:102B100070471046FBE76FF00100F8E703460846F0
:102B200041B1FF2A04D98A221A604FF0FF30704762
:102B30000A700120704700000EB403B5014603ABD4
:102B4000054853F8042B0068019300F03FF802B0E9
:102B50005DF804EB03B070476C01002002440346AB
:102B6000934200D1704703F8011BF9E708B506202E
:102B700000F006FB012000F0D0FE9368013B002B23
:102B800010B4936008DA9469A34201DB0A2903D1E7
:102B90005DF8044B00F03ABA1368581C10601970C5
:102BA00008465DF8044B7047F8B506460F461446D4
:102BB000D518AC4201D1002007E014F8011B3A46B9
:102BC0003046FFF7DAFF431CF3D1F8BD2DE9F04F93
:102BD0000D469DB014469846064618B1036A0BB9D7
:102BE00000F09AF96B6ED90705D4AB899A0502D427
:102BF000A86DFFF7F4FEAB891B0701D52B699BB9C4
:102C00002946304600F040FA70B16B6EDC0704D5FF
:102C10004FF0FF301DB0BDE8F08FAB899805F7D4B9
:102C2000A86DFFF7DDFEF3E70023099320238DF85D
:102C30002930CDF80C803023DFF8AC818DF82A30B4
:102C40004FF0010923469A4613F8012B0AB1252AB1
:102C5000F9D1BAEB040B0BD05B462246294630462D
:102C6000FFF7A2FF013000F0A780099A5A440992A9
:102C70009AF80030002B00F09F8000234FF0FF32C5
:102C8000CDE905230AF1010A049307938DF8533027
:102C90001A935446052214F8011B5348FDF7A0FA75
:102CA000049AD8B9D10644BF20238DF853301307B6
:102CB00044BF2B238DF853309AF800302A2B15D0BF
:102CC000079A544600204FF00A0C214611F8013BA8
:102CD000303B092B4BD9B0B1079214E0A0EB0803AD
:102CE00009FA03F313430493A246D2E7039B191D89
:102CF0001B680391002BBBBF5B4242F002020793AB
:102D00000793B8BF049223782E2B0AD163782A2B1D
:102D100032D1039B1A1D1B68039243EAE37302340A
:102D20000593DFF8D4A0217803225046FDF758FA26
:102D300038B1049BA0EB0A004022824013430134C7
:102D4000049314F8011B29488DF828100622FDF77A
:102D500047FA00283FD0264B1BBB039B073323F0C9
:102D6000070308330393099B3B4409936AE70CFB71
:102D700002320C460120A8E70023013405931946CE
:102D80004FF00A0C204610F8012B303A092A03D9DB
:102D9000002BC6D00591C4E70CFB0121044601239A
:102DA000F0E703AB00932A46124B04A93046FDF727
:102DB000A3FF0746781CD6D16B6ED90705D4AB8923
:102DC0009A0502D4A86DFFF70BFEAB895B063FF5B1
:102DD0001FAF09981EE703AB00932A46054B04A9D1
:102DE0003046FEF71FFAE4E70B42000815420008E0
:102DF000F90C0008A92B000811420008002310B5A7
:102E00000446C0E90033C0E904338360818143662E
:102E1000C2818361194608225C30FFF79FFE0D4B8B
:102E200063620D4BA3620D4BE3620D4B23630D4BAD
:102E300024629C4206D003F16802944202D0D0334F
:102E40009C4205D104F15800BDE81040FFF7C6BD13
:102E500010BD00BF852F0008A72F0008DF2F000836
:102E600005300008E4010020024A0349034800F04D
:102E70006BB800BFBC01002049330008700100207E
:102E800041680C4B994210B5044601D000F05CFA41
:102E9000A168094B994202D0204600F055FAE1683A
:102EA000064B994204D02046BDE8104000F04CBAD1
:102EB00010BD00BFE40100204C020020B40200203D
:102EC0000C4B0D4A0D4810B504211A600022FFF783
:102ED00095FF0A4B01221C46092103F16800FFF708
:102EE0008DFF04F1D0000222BDE810401221FFF74F
:102EF00085BF00BF1C030020692E0008E4010020EC
:102F00000148FFF76CBD00BFDD0100200148FFF75D
:102F100067BD00BFDD01002010B50446FFF7F0FFDC
:102F2000236A1BB1BDE81040FFF7F0BF044B2362DA
:102F3000044B1B68002BF5D1FFF7C2FFF2E700BF7F
:102F4000812E00081C0300202DE9F843074688461F
:102F500014460026D4E90195B9F1010905D5246884
:102F6000002CF7D13046BDE8F883AB89012B07D997
:102F7000B5F90E30013303D029463846C047064321
:102F80006835E9E710B50C46B1F90E1000F022F9EA
:102F90000028ABBF636DA3891B1823F48053ACBF1B
:102FA0006365A38110BD2DE9F0411F468B89DB05C8
:102FB00005460C46164605D5B1F90E10022300222F
:102FC00000F0F6F8A389B4F90E1023F48053A3811E
:102FD00032463B462846BDE8F04100F021B910B525
:102FE0000C46B1F90E1000F0E3F8B4F90C30421CB5
:102FF0000BBF23F4805343F48053A381A38118BFF4
:10300000606510BDB1F90E1000F0C2B8F8B50E46FB
:103010001446054618B1036A0BB9FFF77DFFA36993
:10302000A360A3891A0701D5236943B9214628461D
:1030300000F02AF818B14FF0FF373846F8BD236882
:103040002269981A6369F6B28342374605DC214645
:10305000284600F079F90028EDD1A368013BA36070
:1030600023685A1C22601E706269431C9A4204D075
:10307000A389DB07E1D50A2EDFD12146284600F0DF
:1030800063F90028D9D0D6E738B5284B054618682B
:103090000C4618B1036A0BB9FFF73EFFB4F90C30C8
:1030A0001A0721D4D80607D409222A6043F0400326
:1030B000A3814FF0FF3030E0590712D5616B41B169
:1030C00004F14403994202D02846FFF7CBFC0023C9
:1030D00063630022B4F90C3062602269226023F03D
:1030E000240343F00803A38122693AB99A0501D564
:1030F000180603D52146284600F072F9B4F90C30C1
:1031000013F001020AD00022A26062695242A26159
:10311000226942B913F08000C8D138BD990758BF61
:103120006269A260F4E70020F7E700BF6C010020AD
:103130001F2938B505460C4604D9162303604FF005
:10314000FF3038BDC26B12B152F821304BB928465E
:1031500000F064F8224601462846BDE8384000F0F9
:103160004BB8012B0AD0591C03D116230360012050
:10317000E7E7002142F82410204698470020E0E7C6
:10318000024B01461868FFF7D3BF00BF6C01002057
:1031900038B5064D0023044608462B6000F001FCBC
:1031A000431C02D12B6803B1236038BDE00100202D
:1031B00038B5074D04460846114600222A601A46D3
:1031C00000F016FC431C02D12B6803B1236038BD0C
:1031D000E001002038B5074D04460846114600229C
:1031E0002A601A4600F0A4FB431C02D12B6803B1ED
:1031F000236038BDE001002038B5074D00230446A8
:10320000084611462B6000F078FB431C02D12B6866
:1032100003B1236038BD00BFE001002000F065BBB2
:1032200038B5074D04460846114600222A601A4662
:1032300000F09BFB431C02D12B6803B1236038BD17
:10324000E0010020B1F90C202DE9F04116070546F8
:103250000C4651D44B68002B02DC0B6C002B49DD73
:10326000E66A002E46D0002312F480522F682B60AD
:1032700031D0626DA389590705D56368D21A636B93
:103280000BB1236CD21A0023E66A216A2846B047A4
:10329000421CB4F90C3006D129681D2946D8294AA8
:1032A000CA40D60742D500226260D9042269226052
:1032B00004D5421C01D12B6803B96065616B2F6096
:1032C000C1B104F14403994202D02846FFF7CAFB7A
:1032D000002363630EE0216A01232846B0470246BB
:1032E000501CC7D12B68002BC4D01D2B01D0162B2E
:1032F0001AD12F6000201EE00F69002FFAD093072B
:103300000E6808BF4B690F6018BF0023A6EB0708C3
:103310008B60B8F1000FEDDD216AA66A43463A469C
:103320002846B047002808DCB4F90C3043F04003CD
:10333000A3814FF0FF30BDE8F0810744A8EB0008FF
:10334000E7E700BF0100402038B50B6905460C4691
:1033500013B90025284638BD18B1036A0BB9FFF729
:10336000DBFDB4F90C30002BF3D0626ED00704D42F
:10337000990502D4A06DFFF732FB28462146FFF7DE
:1033800061FF636EDA070546E4D4A3899B05E1D4A7
:10339000A06DFFF725FBDDE770B50C46B1F90E1007
:1033A000002996B015461E460ADAA18911F080015F
:1033B00013D14FF48062002031602A6016B070BDD6
:1033C0006A4600F047F80028EFDB019901F47041EC
:1033D000A1F5005359425941EBE700214022EAE7A9
:1033E0008B8973B59E0705460C4607D504F1470344
:1033F000236023610123636102B070BD01AB6A46A3
:10340000FFF7CAFF009E28463146FEF7C3FEB4F917
:103410000C3038B99A05EFD423F0030343F00203CC
:10342000A381E3E743F08003A381019B2060C4E90B
:103430000406002BE0D0B4F90E10284600F01CF86A
:103440000028D9D0A38923F0030343F00103A3810B
:10345000D2E7000038B5074D002304460846114660
:103460002B6000F0AAFA431C02D12B6803B1236041
:1034700038BD00BFE001002038B5064D00230446EA
:1034800008462B6000F0A9FA431C02D12B6803B157
:10349000236038BDE001002080B400AF064BD3F8B4
:1034A0008830054A43F47003C2F8883000BFBD4637
:1034B0005DF8047B704700BF00ED00E080B483B08E
:1034C00000AF7860044A7B68136000BF0C37BD46CC
:1034D0005DF8047B704700BFC801002080B400AFD6
:1034E000044B9B6803F00C031846BD465DF8047B53
:1034F000704700BF0010024080B400AF044B9B68CF
:1035000003F0F0031846BD465DF8047B704700BF2A
:103510000010024080B400AF044B9B6803F4E063EA
:103520001846BD465DF8047B704700BF001002409E
:1035300080B400AF044B9B6803F460531846BD464B
:103540005DF8047B704700BF0010024080B400AFFC
:10355000044BDB6803F003031846BD465DF8047BAB
:10356000704700BF0010024080B400AF044BDB681E
:103570001B0A03F07F031846BD465DF8047B7047C5
:103580000010024080B400AF044BDB6803F0C0635E
:103590001846BD465DF8047B704700BF001002402E
:1035A00080B400AF044BDB6803F0F0031846BD465F
:1035B0005DF8047B704700BF0010024080B582B008
:1035C00000AF786000F020F802467B681A607B68E4
:1035D0001B68184600F03EF802467B685A607B681C
:1035E0005B68184600F04EF802467B689A607B687C
:1035F0005B68184600F05CF802467B68DA6000BF42
:103600000837BD4680BD000080B582B000AFFFF72F
:1036100065FF03460C2B0CD00C2B0ED8042B02D0CC
:10362000082B03D009E0094B7B6009E0084B7B6065
:1036300006E000F053F8786002E0044B7B6000BFC6
:103640007B6818460837BD4680BD00BF0024F400E3
:1036500000366E0180B582B000AF7860FFF74CFF96
:1036600003461B0903F00F03054AD35C03F01F0355
:103670007A6822FA03F318460837BD4680BD00BFBA
:103680001C44000880B582B000AF7860FFF742FFAD
:1036900003461B0A054AD35C03F01F037A6822FA2B
:1036A00003F318460837BD4680BD00BF2C44000810
:1036B00080B582B000AF7860FFF73AFF0346DB0ABF
:1036C000054AD35C03F01F037A6822FA03F3184615
:1036D0000837BD4680BD00BF2C44000890B583B0BC
:1036E00000AFFFF733FF38603B68022B03D03B6825
:1036F000032B03D005E0114B7B6005E0104B7B6092
:1037000002E00E4B7B6000BFFFF72EFF02467B6896
:1037100003FB02F4FFF744FF03461B090133B4FB2C
:10372000F3F4FFF72FFF03465B0E01335B00B4FB9E
:10373000F3F318460C37BD4690BD00BF0024F400DB
:1037400000366E0180B582B000AF00F0D8FB00F00B
:103750008BF81248FFF732FF00F0BEFB786000F0F4
:10376000BBFB02467B68D31A3B603B68B3F57A7FAC
:10377000F5D900F0B1FB78604FF090435B694FF0F2
:10378000904283F02003536100F062FC38603B6894
:103790001946034800F068FCE1E700BF2003002061
:1037A000A040000880B400AF00BFFDE780B586B040
:1037B00000AF1C4A1C4BD31A7B601B4B7B611B4B1D
:1037C0003B610023FB600AE03A69531C3B617B6963
:1037D000591C796112781A70FB680133FB60FA6832
:1037E0007B689A42F0D3124A124BD31A7B60114B7A
:1037F0007B610023BB6007E07B695A1C7A61002271
:103800001A70BB680133BB60BA687B689A42F3D315
:10381000FFF742FE00F06CFBFFF794FF00BF183784
:10382000BD4680BDD4010020000000203C440008BB
:103830003C030020D401002080B485B000AF786044
:10384000084BDA6C07497B681343CB64054BDA6C91
:103850007B681340FB60FB6800BF1437BD465DF812
:10386000047B70470010024080B500AF0120FFF7D5
:10387000E3FF0420FFF7E0FF4FF090431B684FF099
:10388000904223F400631360034B1B68024A23F049
:103890004063136000BF80BD0008004880B483B05F
:1038A00000AF78604FF06043D3F8803E03F001032F
:1038B000002B13D04FF06043D3F8003E03F0010318
:1038C000002B0BD000E000BF4FF060431B68002BC3
:1038D000F9D04FF060437A68D2B21A707B6818460C
:1038E0000C37BD465DF8047B704780B400AF012300
:1038F0001846BD465DF8047B704780B582B000AFC6
:103900007860396000F0C4FB034616221A604FF05D
:10391000FF3318460837BD4680BD80B582B000AF82
:1039200078604FF0FF317868FFF7E7FF00BFFDE7F1
:1039300080B586B000AFF860B9607A6000237B6123
:103940000AE0AFF300800146BB685A1CBA60CAB2F5
:103950001A707B6901337B617A697B689A42F0DB7C
:103960007B6818461837BD4680BD80B586B000AF6D
:10397000F860B9607A6000237B6109E0BB685A1C7B
:10398000BA601B781846FFF789FF7B6901337B61BA
:103990007A697B689A42F1DB7B6818461837BD4626
:1039A00080BD80B483B000AF78604FF0FF3318461D
:1039B0000C37BD465DF8047B704780B483B000AF20
:1039C000786039603B684FF400525A600023184613
:1039D0000C37BD465DF8047B704780B483B000AF00
:1039E0007860012318460C37BD465DF8047B7047AC
:1039F00080B485B000AFF860B9607A6000231846E3
:103A00001437BD465DF8047B7047000080B582B076
:103A100000AF7860114B1B68002B02D10F4B104A8E
:103A20001A600E4B1B680F4A13600C4B1A687B68B8
:103A300013440A4A1360094B1B680B4A934207D38D
:103A400000F026FB03460C221A604FF0FF3301E022
:103A5000044B1B6818460837BD4680BD3003002064
:103A600040030020340300204005002080B485B0CE
:103A700000AF78607B6803F00703FB600C4BDB68EA
:103A8000BB60BA684FF6FF031340BB60FB681A02C5
:103A9000BB68134343F0BF6343F40033BB60044A85
:103AA000BB68D36000BF1437BD465DF8047B704728
:103AB00000ED00E080B400AF044BDB681B0A03F0AC
:103AC00007031846BD465DF8047B704700ED00E033
:103AD00080B483B000AF03463960FB7197F90730BB
:103AE000002B0ADB3B68DAB20C4997F90730120168
:103AF000D2B20B4483F800230AE03B68DAB20849EB
:103B0000FB7903F00F03043B1201D2B20B441A7687
:103B100000BF0C37BD465DF8047B704700E100E054
:103B200000ED00E080B489B000AFF860B9607A6061
:103B3000FB6803F00703FB61FB69C3F10703042B78
:103B400028BF0423BB61FB690433062B02D9FB6940
:103B5000033B00E000237B614FF0FF32BB6902FAB8
:103B600003F3DA43BB681A407B699A404FF0FF3198
:103B70007B6901FA03F3D9437B680B401343184672
:103B80002437BD465DF8047B7047000080B582B0E5
:103B900000AF78607B68013BB3F1807F01D30123E4
:103BA0000FE00A4A7B68013B53600F214FF0FF3062
:103BB000FFF78EFF054B00229A60044B07221A6024
:103BC000002318460837BD4680BD00BF10E000E066
:103BD00080B485B000AF7860084B9A6D07497B6868
:103BE00013438B65054B9A6D7B681340FB60FB6844
:103BF00000BF1437BD465DF8047B704700100240DB
:103C000080B485B000AF7860084B1A6E07497B68B6
:103C100013430B66054B1A6E7B681340FB60FB6811
:103C200000BF1437BD465DF8047B704700100240AA
:103C300080B483B000AF7860064B1B6823F00F029E
:103C400004497B6813430B6000BF0C37BD465DF829
:103C5000047B70470020024080B400AF044B1B6817
:103C600003F00F031846BD465DF8047B704700BFA4
:103C70000020024080B400AF064BD3F88030054AE4
:103C800023F48073C2F8803000BFBD465DF8047B2A
:103C9000704700BF0070004080B400AF054B9B68C8
:103CA000044A43F48043936000BFBD465DF8047B43
:103CB000704700BF0070004080B400AF054B1B6828
:103CC000044A43F48033136000BFBD465DF8047BB3
:103CD000704700BF0010024080B400AF074B1B6864
:103CE00003F40033B3F5003F01D1012300E00023CA
:103CF0001846BD465DF8047B704700BF00100240C7
:103D000080B400AF054B1B68044A43F48073136012
:103D100000BFBD465DF8047B704700BF0010024045
:103D200080B400AF074B1B6803F48063B3F5806F6A
:103D300001D1012300E000231846BD465DF8047B55
:103D4000704700BF0010024080B483B000AF7860BD
:103D5000074B5B6823F0FE427B681B060449134354
:103D60004B6000BF0C37BD465DF8047B704700BF59
:103D70000010024080B483B000AF7860064B9B68AF
:103D800023F0030204497B6813438B6000BF0C37A8
:103D9000BD465DF8047B70470010024080B400AF60
:103DA000044B9B6803F00C031846BD465DF8047B8A
:103DB000704700BF0010024080B483B000AF78604D
:103DC000064B9B6823F0F00204497B6813438B6029
:103DD00000BF0C37BD465DF8047B70470010024001
:103DE00080B483B000AF7860064B9B6823F4E06238
:103DF00004497B6813438B6000BF0C37BD465DF8F8
:103E0000047B70470010024080B483B000AF78603C
:103E1000064B9B6823F4605204497B6813438B6014
:103E200000BF0C37BD465DF8047B704700100240B0
:103E300080B400AF054B1B68044A43F080731360E5
:103E400000BFBD465DF8047B704700BF0010024014
:103E500080B400AF074B1B6803F00073B3F1007F21
:103E600001D1012300E000231846BD465DF8047B24
:103E7000704700BF0010024080B485B000AFF8600A
:103E8000B9607A603B600A4BDA680A4B1340F96804
:103E9000BA6811437A68120211433A680A43044926
:103EA0001343CB6000BF1437BD465DF8047B7047F9
:103EB000001002400C80FFF980B400AF054BDB68B6
:103EC000044A43F08073D36000BFBD465DF8047BB5
:103ED000704700BF0010024080B400AF034B1B6866
:103EE0001846BD465DF8047B704700BF38030020CC
:103EF00080B400AF00BFBD465DF8047B704780B55D
:103F000000AF00F007F80320FFF7B0FD00F056F80F
:103F100000BF80BD80B500AF0120FFF771FE4FF0FC
:103F20008050FFF755FEFFF7B7FE0420FFF780FE35
:103F300000BFFFF791FE0346042BFAD1FFF79AFE6C
:103F4000FFF7BAFE00BFFFF7C7FE0346012BFAD109
:103F5000FFF7D6FE00BFFFF7E3FE0346012BFAD1C1
:103F60004020FFF7F1FE0023192220210320FFF754
:103F700083FFFFF7A1FFFFF75BFF00BFFFF768FFBD
:103F80000346012BFAD10320FFF7F4FE00BFFFF731
:103F900005FF03460C2BFAD10020FFF70DFF4FF46D
:103FA000A060FFF71DFF4FF42050FFF72DFF0248E0
:103FB000FFF784FA00BF80BD00E1F50580B584B04D
:103FC00000AF0F23FB60154B1A68154B1B78194681
:103FD0004FF47A73B3FBF1F3B2FBF3F3BB60B86851
:103FE000FFF7D4FD0346002B14D1FB680F2B12D82A
:103FF000FFF760FD78600022F9687868FFF792FDAE
:10400000034619464FF0FF30FFF762FD054AFB6893
:10401000136000E000BF1037BD4680BDC80100201E
:10402000D0010020CC01002080B400AF064B1B78EB
:104030001A46064B1B681344044A136000BFBD4672
:104040005DF8047B704700BFD001002038030020DA
:1040500080B400AF034B5B681846BD465DF8047B37
:10406000704700BF001000E00FB400B5074983B0EF
:1040700004AB086853F8042B81680193FEF7A6FD92
:1040800003B05DF804EB04B0704700BF6C01002082
:0C409000014B1868704700BF6C01002055
:1040A00025640D0A00494E4600696E66004E414E79
:1040B000006E616E003000303132333435363738BF
:1040C0003941424344454600303132333435363786
:1040D000383961626364656600496E66696E697449
:1040E00079004E614E005245454E54206D616C6C16
:1040F0006F6320737563636565646564002F646135
:1041000074612F6A656E6B696E732F776F726B7354
:10411000706163652F474E552D746F6F6C636861D6
:10412000696E2F61726D2D31342D352F7372632FAF
:104130006E65776C69622D63796777696E2F6E653E
:10414000776C69622F6C6962632F7374646C696247
:104150002F64746F612E630042616C6C6F63207317
:104160007563636565646564002F646174612F6ABB
:10417000656E6B696E732F776F726B7370616365B9
:104180002F474E552D746F6F6C636861696E2F6198
:10419000726D2D31342D352F7372632F6E65776CF0
:1041A00069622D63796777696E2F6E65776C6962D6
:1041B0002F6C6962632F7374646C69622F6D707207
:1041C00065632E63004300504F534958002E002C66
:1041D0002066756E6374696F6E3A20006173736553
:1041E0007274696F6E2022257322206661696C6586
:1041F000643A2066696C6520222573222C206C6944
:104200006E65202564257325730A00232D302B202D
:1042100000686C4C00656667454647000500000075
:10422000190000007D0000000080E03779C34143A1
:10423000176E05B5B5B89346F5F93FE9034F384D0C
:10424000321D30F94877825A3CBF737FDD4F1575B8
:10425000000000000000F03F0000000000002440CB
:1042600000000000000059400000000000408F40A6
:10427000000000000088C34000000000006AF84011
:104280000000000080842E4100000000D012634135
:104290000000000084D797410000000065CDCD41AB
:1042A000000000205FA00242000000E8764837428C
:1042B000000000A2941A6D42000040E59C30A2422A
:1042C0000000901EC4BCD64200003426F56B0C439F
:1042D0000080E03779C3414300A0D8855734764346
:1042E00000C84E676DC1AB43003D9160E458E143A7
:1042F000408CB5781DAF154450EFE2D6E41A4B441C
:1043000092D54D06CFF08044F64AE1C7022DB54460
:10431000B49DD9794378EA44002020202020202031
:104320002020282828282820202020202020202065
:104330002020202020202020208810101010101075
:1043400010101010101010101004040404040404C1
:10435000040404101010101010104141414141415B
:10436000010101010101010101010101010101013D
:10437000010101011010101010104242424242424D
:10438000020202020202020202020202020202020D
:1043900002020202101010102000000000000000B5
:1043A000000000000000000000000000000000000D
:1043B00000000000000000000000000000000000FD
:1043C00000000000000000000000000000000000ED
:1043D00000000000000000000000000000000000DD
:1043E00000000000000000000000000000000000CD
:1043F00000000000000000000000000000000000BD
:1044000000000000000000000000000000000000AC
:10441000000000000000000000000000000000009C
:104420000000000001020304060708090000000064
:04443000010203047E
:08443400ACBDFF7F0100000098
:10443C00430000000000000000000000000000002D
:10444C000000000000000000000000000000000060
:10445C00430000000000000000000000000000000D
:10446C000000000000000000000000000000000040
:10447C0043000000000000000000000000000000ED
:10448C000000000000000000000000000000000020
:10449C0043000000000000000000000000000000CD
:1044AC000000000000000000000000000000000000
:1044BC0043000000000000000000000000000000AD
:1044CC0000000000000000000000000000000000E0
:1044DC00430000000000000000000000000000008D
:1044EC0000000000000000000000000000000000C0
:1044FC00430000000000000000000000000000006D
:10450C00000000000000000000000000000000009F
:10451C001D2B0008F92A00080000000018430008B1
:10452C00CD4100080A4200080A4200080A4200086D
:10453C000A4200080A4200080A4200080A4200081F
:10454C000A4200080A420008FFFFFFFFFFFFFFFFBF
:10455C00FFFFFFFFFFFF00000100415343494900EB
:10456C00000000000000000000000000000000003F
:10457C0000000000000000000000415343494900C6
:10458C00000000000000000000000000000000001F
:10459C00000000000000000000000000700100207E
:1045AC0000000000E40100204C020020B4020020B6
:1045BC0000000000000000000000000000000000EF
:1045CC0000000000000000000000000000000000DF
:1045DC0000000000000000000000000000000000CF
:1045EC0000000000000000000000000000000000BF
:1045FC0003000000E40100200024F400100000007F
:04460C0001000000A9
:04000005080037AD0B
:00000001FF
